{
  "transactions": [
    {
      "hash": "0x0fb9898dd09bda514c9c654d6cbf349004bd83c26fc07badbb09d385450dfd3a",
      "transactionType": "CALL",
      "contractName": null,
      "contractAddress": "0xd29759aea5c689c6c1dc869cea8f65fa7b40b691",
      "function": "ping(uint64,address)",
      "arguments": [
        "3478487238524512106",
        "0x8Da49d1a272c61E883BefBef8828b638C0Aa0309"
      ],
      "transaction": {
        "from": "0xce3c37c280bd8119a93401ac337b79af6179b2d9",
        "to": "0xd29759aea5c689c6c1dc869cea8f65fa7b40b691",
        "gas": "0x3ab02",
        "value": "0x38d7ea4c68000",
        "input": "0x287bac42000000000000000000000000000000000000000000000000304611b6affba76a0000000000000000000000008da49d1a272c61e883befbef8828b638c0aa0309",
        "nonce": "0x3",
        "chainId": "0xaa36a7"
      },
      "additionalContracts": [],
      "isFixedGasLimit": false
    }
  ],
  "receipts": [
    {
      "status": "0x1",
      "cumulativeGasUsed": "0x97e5dc",
      "logs": [
        {
          "address": "0x097d90c9d3e0b50ca60e1ae45f6a81010f9fb534",
          "topics": [
            "0xe1fffcc4923d04b559f4d29a8bfc6cda04eb5b0d3c460751c2402c5c5cc9109c",
            "0x0000000000000000000000000bf3de8c5d3e8a2b34d2beeb17abfcebaf363a59"
          ],
          "data": "0x000000000000000000000000000000000000000000000000000097f46ea77f54",
          "blockHash": "0x8d33ebdb93acc808fd20efaaabd28f5e7be1203ff3a76ca690a33d76936e3a4f",
          "blockNumber": "0x9885d4",
          "blockTimestamp": "0x695e29d8",
          "transactionHash": "0x0fb9898dd09bda514c9c654d6cbf349004bd83c26fc07badbb09d385450dfd3a",
          "transactionIndex": "0x57",
          "logIndex": "0x5e",
          "removed": false
        },
        {
          "address": "0x097d90c9d3e0b50ca60e1ae45f6a81010f9fb534",
          "topics": [
            "0xddf252ad1be2c89b69c2b068fc378daa952ba7f163c4a11628f55a4df523b3ef",
            "0x0000000000000000000000000bf3de8c5d3e8a2b34d2beeb17abfcebaf363a59",
            "0x000000000000000000000000bc09627e58989ba8f1eda775e486467d2a00944f"
          ],
          "data": "0x000000000000000000000000000000000000000000000000000097f46ea77f54",
          "blockHash": "0x8d33ebdb93acc808fd20efaaabd28f5e7be1203ff3a76ca690a33d76936e3a4f",
          "blockNumber": "0x9885d4",
          "blockTimestamp": "0x695e29d8",
          "transactionHash": "0x0fb9898dd09bda514c9c654d6cbf349004bd83c26fc07badbb09d385450dfd3a",
          "transactionIndex": "0x57",
          "logIndex": "0x5f",
          "removed": false
        },
        {
          "address": "0xbc09627e58989ba8f1eda775e486467d2a00944f",
          "topics": [
            "0xd0c3c799bf9e2639de44391e7f524d229b2b55f5b1ea94b2bf7da42f7243dddd"
          ],
          "data": "0x0000000000000000000000000000000000000000000000000000000000000020000000000000000000000000000000000000000000000000de41ba4fc9d91ad9000000000000000000000000d29759aea5c689c6c1dc869cea8f65fa7b40b6910000000000000000000000008da49d1a272c61e883befbef8828b638c0aa030900000000000000000000000000000000000000000000000000000000000053140000000000000000000000000000000000000000000000000000000000030d4000000000000000000000000000000000000000000000000000000000000000000000000000000000000000000000000000000000000000000000000000000001000000000000000000000000097d90c9d3e0b50ca60e1ae45f6a81010f9fb534000000000000000000000000000000000000000000000000000097f46ea77f5400000000000000000000000000000000000000000000000000000000000001a000000000000000000000000000000000000000000000000000000000000002200000000000000000000000000000000000000000000000000000000000000240b56d31cf6eb5bf5106fe1de12296d0de84ec98a70dbe24acdbf90ca9829cdd9900000000000000000000000000000000000000000000000000000000000000600000000000000000000000000000000000000000000000000000000000000020000000000000000000000000000000000000000000000000000000000000000470696e670000000000000000000000000000000000000000000000000000000000000000000000000000000000000000000000000000000000000000000000000000000000000000000000000000000000000000000000000000000000000000",
          "blockHash": "0x8d33ebdb93acc808fd20efaaabd28f5e7be1203ff3a76ca690a33d76936e3a4f",
          "blockNumber": "0x9885d4",
          "blockTimestamp": "0x695e29d8",
          "transactionHash": "0x0fb9898dd09bda514c9c654d6cbf349004bd83c26fc07badbb09d385450dfd3a",
          "transactionIndex": "0x57",
          "logIndex": "0x60",
          "removed": false
        }
      ],
      "logsBloom": "0x00000000080040000000000000000000000000000000000000000000000000000000000000000000000000000000000000000000000000000000000000000000000100000000000000000008000000000000000000000000000000008000000000020000000100000000000000000000000000000000000000000010000000000000000000000000000000000000000000000001000000000000800000000000000000000000080400400000000000000000000000000000000100001000000000000002000000000000000002000000000000000000000000000000000000000000000040000000000000000000000004000000000000440000000000000000",
      "type": "0x2",
      "transactionHash": "0x0fb9898dd09bda514c9c654d6cbf349004bd83c26fc07badbb09d385450dfd3a",
      "transactionIndex": "0x57",
      "blockHash": "0x8d33ebdb93acc808fd20efaaabd28f5e7be1203ff3a76ca690a33d76936e3a4f",
      "blockNumber": "0x9885d4",
      "gasUsed": "0x2a7d4",
      "effectiveGasPrice": "0x10c8ea",
      "from": "0xce3c37c280bd8119a93401ac337b79af6179b2d9",
      "to": "0xd29759aea5c689c6c1dc869cea8f65fa7b40b691",
      "contractAddress": null
    }
  ],
  "libraries": [],
  "pending": [],
  "returns": {},
  "timestamp": 1767778777,
  "chain": 11155111,
  "commit": "180b236"
}